{
  "contractName": "Administration",
  "abi": [
    {
      "inputs": [
        {
          "name": "_parent",
          "type": "address"
        }
      ],
      "payable": false,
      "stateMutability": "nonpayable",
      "type": "constructor"
    },
    {
      "payable": true,
      "stateMutability": "payable",
      "type": "fallback"
    },
    {
      "constant": false,
      "inputs": [
        {
          "name": "new_member",
          "type": "address"
        }
      ],
      "name": "register_member",
      "outputs": [],
      "payable": false,
      "stateMutability": "nonpayable",
      "type": "function"
    },
    {
      "constant": false,
      "inputs": [
        {
          "name": "member",
          "type": "address"
        }
      ],
      "name": "dismiss_member",
      "outputs": [],
      "payable": false,
      "stateMutability": "nonpayable",
      "type": "function"
    },
    {
      "constant": false,
      "inputs": [
        {
          "name": "child",
          "type": "address"
        }
      ],
      "name": "add_child",
      "outputs": [],
      "payable": false,
      "stateMutability": "nonpayable",
      "type": "function"
    },
    {
      "constant": false,
      "inputs": [
        {
          "name": "child",
          "type": "address"
        }
      ],
      "name": "abolish_child",
      "outputs": [],
      "payable": false,
      "stateMutability": "nonpayable",
      "type": "function"
    },
    {
      "constant": false,
      "inputs": [
        {
          "name": "variable_id",
          "type": "bytes32"
        }
      ],
      "name": "add_authority",
      "outputs": [],
      "payable": false,
      "stateMutability": "nonpayable",
      "type": "function"
    },
    {
      "constant": false,
      "inputs": [
        {
          "name": "variable_id",
          "type": "bytes32"
        },
        {
          "name": "variable_index",
          "type": "uint256"
        },
        {
          "name": "new_administrator",
          "type": "address"
        }
      ],
      "name": "delegate_authority",
      "outputs": [],
      "payable": false,
      "stateMutability": "nonpayable",
      "type": "function"
    },
    {
      "constant": false,
      "inputs": [
        {
          "name": "variable_id",
          "type": "bytes32"
        },
        {
          "name": "variable_index",
          "type": "uint256"
        }
      ],
      "name": "deprive_authority",
      "outputs": [],
      "payable": false,
      "stateMutability": "nonpayable",
      "type": "function"
    },
    {
      "constant": false,
      "inputs": [
        {
          "name": "administrator",
          "type": "address"
        },
        {
          "name": "variable_id",
          "type": "bytes32"
        },
        {
          "name": "variable_index",
          "type": "uint256"
        }
      ],
      "name": "_deprive_authority",
      "outputs": [],
      "payable": false,
      "stateMutability": "nonpayable",
      "type": "function"
    },
    {
      "constant": false,
      "inputs": [
        {
          "name": "child",
          "type": "address"
        },
        {
          "name": "amount",
          "type": "uint256"
        }
      ],
      "name": "assign_budget",
      "outputs": [],
      "payable": false,
      "stateMutability": "nonpayable",
      "type": "function"
    },
    {
      "constant": false,
      "inputs": [
        {
          "name": "child",
          "type": "address"
        }
      ],
      "name": "release_child_budget",
      "outputs": [],
      "payable": false,
      "stateMutability": "nonpayable",
      "type": "function"
    }
  ],
  "bytecode": "0x608060405260405180602001604052806000815250600260008201518160000155505060405180602001604052806000815250600660008201518160000155505034801561004c57600080fd5b50604051611e23380380611e238339818101604052602081101561006f57600080fd5b810190808051906020019092919050505080600360006101000a81548173ffffffffffffffffffffffffffffffffffffffff021916908373ffffffffffffffffffffffffffffffffffffffff16021790555050611d52806100d16000396000f3fe6080604052600436106100915760003560e01c8063c59a461f11610059578063c59a461f14610220578063eaa99e4014610271578063ee70d29d146102c2578063f1e5a0dd14610327578063f571051a1461037857610091565b806302179eba146100a35780630ca2568d146100fe57806314d34f061461014f5780633405c9af1461018a57806343cf1e6e146101db575b600080369050146100a157600080fd5b005b3480156100af57600080fd5b506100fc600480360360408110156100c657600080fd5b81019080803573ffffffffffffffffffffffffffffffffffffffff169060200190929190803590602001909291905050506103dd565b005b34801561010a57600080fd5b5061014d6004803603602081101561012157600080fd5b81019080803573ffffffffffffffffffffffffffffffffffffffff16906020019092919050505061066b565b005b34801561015b57600080fd5b506101886004803603602081101561017257600080fd5b81019080803590602001909291905050506107c9565b005b34801561019657600080fd5b506101d9600480360360208110156101ad57600080fd5b81019080803573ffffffffffffffffffffffffffffffffffffffff1690602001909291905050506109d5565b005b3480156101e757600080fd5b5061021e600480360360408110156101fe57600080fd5b810190808035906020019092919080359060200190929190505050610da1565b005b34801561022c57600080fd5b5061026f6004803603602081101561024357600080fd5b81019080803573ffffffffffffffffffffffffffffffffffffffff169060200190929190505050610db0565b005b34801561027d57600080fd5b506102c06004803603602081101561029457600080fd5b81019080803573ffffffffffffffffffffffffffffffffffffffff169060200190929190505050610ff8565b005b3480156102ce57600080fd5b50610325600480360360608110156102e557600080fd5b81019080803573ffffffffffffffffffffffffffffffffffffffff16906020019092919080359060200190929190803590602001909291905050506112bd565b005b34801561033357600080fd5b506103766004803603602081101561034a57600080fd5b81019080803573ffffffffffffffffffffffffffffffffffffffff169060200190929190505050611612565b005b34801561038457600080fd5b506103db6004803603606081101561039b57600080fd5b810190808035906020019092919080359060200190929190803573ffffffffffffffffffffffffffffffffffffffff16906020019092919050505061176f565b005b81600073ffffffffffffffffffffffffffffffffffffffff168173ffffffffffffffffffffffffffffffffffffffff161415610481576040517f08c379a00000000000000000000000000000000000000000000000000000000081526004018080602001828103825260178152602001807f7a65726f206164647265737320697320696e76616c696400000000000000000081525060200191505060405180910390fd5b6000600560008373ffffffffffffffffffffffffffffffffffffffff1673ffffffffffffffffffffffffffffffffffffffff168152602001908152602001600020541415610537576040517f08c379a00000000000000000000000000000000000000000000000000000000081526004018080602001828103825260188152602001807f746865206368696c6420646f6573206e6f74206578697374000000000000000081525060200191505060405180910390fd5b60003073ffffffffffffffffffffffffffffffffffffffff16319050600061056182600a54611ad1565b9050600061056f8286611ad1565b10156105c6576040517f08c379a000000000000000000000000000000000000000000000000000000000815260040180806020018281038252602c815260200180611c9d602c913960400191505060405180910390fd5b6105d2600a5485611b1b565b600a81905550610621600960008773ffffffffffffffffffffffffffffffffffffffff1673ffffffffffffffffffffffffffffffffffffffff1681526020019081526020016000205485611b1b565b600960008773ffffffffffffffffffffffffffffffffffffffff1673ffffffffffffffffffffffffffffffffffffffff168152602001908152602001600020819055505050505050565b600073ffffffffffffffffffffffffffffffffffffffff168173ffffffffffffffffffffffffffffffffffffffff16141561070e576040517f08c379a00000000000000000000000000000000000000000000000000000000081526004018080602001828103825260178152602001807f7a65726f206164647265737320697320696e76616c696400000000000000000081525060200191505060405180910390fd5b600060048290806001815401808255809150509060018203906000526020600020016000909192909190916101000a81548173ffffffffffffffffffffffffffffffffffffffff021916908373ffffffffffffffffffffffffffffffffffffffff160217905550905080600560008473ffffffffffffffffffffffffffffffffffffffff1673ffffffffffffffffffffffffffffffffffffffff168152602001908152602001600020819055506107c56006611ba3565b5050565b6000801b811415610842576040517f08c379a00000000000000000000000000000000000000000000000000000000081526004018080602001828103825260158152602001807f7a65726f20627974657320697320696e76616c6964000000000000000000000081525060200191505060405180910390fd5b600073ffffffffffffffffffffffffffffffffffffffff166007600083815260200190815260200160002060009054906101000a900473ffffffffffffffffffffffffffffffffffffffff1673ffffffffffffffffffffffffffffffffffffffff1614610917576040517f08c379a000000000000000000000000000000000000000000000000000000000815260040180806020018281038252601b8152602001807f746865207661726961626c6520616c726561647920657869737473000000000081525060200191505060405180910390fd5b306007600083815260200190815260200160002060006101000a81548173ffffffffffffffffffffffffffffffffffffffff021916908373ffffffffffffffffffffffffffffffffffffffff160217905550600860003073ffffffffffffffffffffffffffffffffffffffff1673ffffffffffffffffffffffffffffffffffffffff16815260200190815260200160002081908060018154018082558091505090600182039060005260206000200160009091929091909150555050565b80600073ffffffffffffffffffffffffffffffffffffffff168173ffffffffffffffffffffffffffffffffffffffff161415610a79576040517f08c379a00000000000000000000000000000000000000000000000000000000081526004018080602001828103825260178152602001807f7a65726f206164647265737320697320696e76616c696400000000000000000081525060200191505060405180910390fd5b6000600560008373ffffffffffffffffffffffffffffffffffffffff1673ffffffffffffffffffffffffffffffffffffffff168152602001908152602001600020541415610b2f576040517f08c379a00000000000000000000000000000000000000000000000000000000081526004018080602001828103825260188152602001807f746865206368696c6420646f6573206e6f74206578697374000000000000000081525060200191505060405180910390fd5b6000600560008473ffffffffffffffffffffffffffffffffffffffff1673ffffffffffffffffffffffffffffffffffffffff168152602001908152602001600020549050600060048281548110610b8257fe5b9060005260206000200160006101000a81548173ffffffffffffffffffffffffffffffffffffffff021916908373ffffffffffffffffffffffffffffffffffffffff1602179055506000600560008573ffffffffffffffffffffffffffffffffffffffff1673ffffffffffffffffffffffffffffffffffffffff16815260200190815260200160002081905550610c196006611bb9565b6000600960008573ffffffffffffffffffffffffffffffffffffffff1673ffffffffffffffffffffffffffffffffffffffff1681526020019081526020016000205490506000600960008673ffffffffffffffffffffffffffffffffffffffff1673ffffffffffffffffffffffffffffffffffffffff16815260200190815260200160002081905550610cae600a5482611ad1565b506060600860008673ffffffffffffffffffffffffffffffffffffffff1673ffffffffffffffffffffffffffffffffffffffff168152602001908152602001600020805480602002602001604051908101604052809291908181526020018280548015610d3a57602002820191906000526020600020905b815481526020019060010190808311610d26575b5050505050905060008151905060008090505b81811015610d98576000838281518110610d6357fe5b602002602001015190506000801b811415610d7e5750610d8b565b610d898882846112bd565b505b8080600101915050610d4d565b50505050505050565b610dac3383836112bd565b5050565b80600073ffffffffffffffffffffffffffffffffffffffff168173ffffffffffffffffffffffffffffffffffffffff161415610e54576040517f08c379a00000000000000000000000000000000000000000000000000000000081526004018080602001828103825260178152602001807f7a65726f206164647265737320697320696e76616c696400000000000000000081525060200191505060405180910390fd5b6000600160008373ffffffffffffffffffffffffffffffffffffffff1673ffffffffffffffffffffffffffffffffffffffff168152602001908152602001600020541415610f0a576040517f08c379a00000000000000000000000000000000000000000000000000000000081526004018080602001828103825260198152602001807f746865206d656d62657220646f6573206e6f742065786973740000000000000081525060200191505060405180910390fd5b6000600160008473ffffffffffffffffffffffffffffffffffffffff1673ffffffffffffffffffffffffffffffffffffffff1681526020019081526020016000205490506000808281548110610f5c57fe5b9060005260206000200160006101000a81548173ffffffffffffffffffffffffffffffffffffffff021916908373ffffffffffffffffffffffffffffffffffffffff1602179055506000600160008573ffffffffffffffffffffffffffffffffffffffff1673ffffffffffffffffffffffffffffffffffffffff16815260200190815260200160002081905550610ff36002611bb9565b505050565b80600073ffffffffffffffffffffffffffffffffffffffff168173ffffffffffffffffffffffffffffffffffffffff16141561109c576040517f08c379a00000000000000000000000000000000000000000000000000000000081526004018080602001828103825260178152602001807f7a65726f206164647265737320697320696e76616c696400000000000000000081525060200191505060405180910390fd5b6000600560008373ffffffffffffffffffffffffffffffffffffffff1673ffffffffffffffffffffffffffffffffffffffff168152602001908152602001600020541415611152576040517f08c379a00000000000000000000000000000000000000000000000000000000081526004018080602001828103825260188152602001807f746865206368696c6420646f6573206e6f74206578697374000000000000000081525060200191505060405180910390fd5b8173ffffffffffffffffffffffffffffffffffffffff163373ffffffffffffffffffffffffffffffffffffffff16146111d6576040517f08c379a0000000000000000000000000000000000000000000000000000000008152600401808060200182810382526022815260200180611cfc6022913960400191505060405180910390fd5b6000600960008473ffffffffffffffffffffffffffffffffffffffff1673ffffffffffffffffffffffffffffffffffffffff1681526020019081526020016000205490506000600960008573ffffffffffffffffffffffffffffffffffffffff1673ffffffffffffffffffffffffffffffffffffffff1681526020019081526020016000208190555061126b600a5482611ad1565b600a819055503373ffffffffffffffffffffffffffffffffffffffff166108fc829081150290604051600060405180830381858888f193505050501580156112b7573d6000803e3d6000fd5b50505050565b828282600073ffffffffffffffffffffffffffffffffffffffff168373ffffffffffffffffffffffffffffffffffffffff161415611363576040517f08c379a00000000000000000000000000000000000000000000000000000000081526004018080602001828103825260178152602001807f7a65726f206164647265737320697320696e76616c696400000000000000000081525060200191505060405180910390fd5b81600860008573ffffffffffffffffffffffffffffffffffffffff1673ffffffffffffffffffffffffffffffffffffffff16815260200190815260200160002082815481106113ae57fe5b90600052602060002001541461140f576040517f08c379a0000000000000000000000000000000000000000000000000000000008152600401808060200182810382526033815260200180611cc96033913960400191505060405180910390fd5b8273ffffffffffffffffffffffffffffffffffffffff166007600084815260200190815260200160002060009054906101000a900473ffffffffffffffffffffffffffffffffffffffff1673ffffffffffffffffffffffffffffffffffffffff16146114e3576040517f08c379a00000000000000000000000000000000000000000000000000000000081526004018080602001828103825260208152602001807f7468652061646d696e6973747261746f7220646f6573206e6f7420657869737481525060200191505060405180910390fd5b6000801b85141561155c576040517f08c379a00000000000000000000000000000000000000000000000000000000081526004018080602001828103825260158152602001807f7a65726f20627974657320697320696e76616c6964000000000000000000000081525060200191505060405180910390fd5b306007600087815260200190815260200160002060006101000a81548173ffffffffffffffffffffffffffffffffffffffff021916908373ffffffffffffffffffffffffffffffffffffffff1602179055506000801b600860008873ffffffffffffffffffffffffffffffffffffffff1673ffffffffffffffffffffffffffffffffffffffff16815260200190815260200160002085815481106115fc57fe5b9060005260206000200181905550505050505050565b600073ffffffffffffffffffffffffffffffffffffffff168173ffffffffffffffffffffffffffffffffffffffff1614156116b5576040517f08c379a00000000000000000000000000000000000000000000000000000000081526004018080602001828103825260178152602001807f7a65726f206164647265737320697320696e76616c696400000000000000000081525060200191505060405180910390fd5b6000808290806001815401808255809150509060018203906000526020600020016000909192909190916101000a81548173ffffffffffffffffffffffffffffffffffffffff021916908373ffffffffffffffffffffffffffffffffffffffff160217905550905080600160008473ffffffffffffffffffffffffffffffffffffffff1673ffffffffffffffffffffffffffffffffffffffff1681526020019081526020016000208190555061176b6002611ba3565b5050565b338383600073ffffffffffffffffffffffffffffffffffffffff168373ffffffffffffffffffffffffffffffffffffffff161415611815576040517f08c379a00000000000000000000000000000000000000000000000000000000081526004018080602001828103825260178152602001807f7a65726f206164647265737320697320696e76616c696400000000000000000081525060200191505060405180910390fd5b81600860008573ffffffffffffffffffffffffffffffffffffffff1673ffffffffffffffffffffffffffffffffffffffff168152602001908152602001600020828154811061186057fe5b9060005260206000200154146118c1576040517f08c379a0000000000000000000000000000000000000000000000000000000008152600401808060200182810382526033815260200180611cc96033913960400191505060405180910390fd5b8273ffffffffffffffffffffffffffffffffffffffff166007600084815260200190815260200160002060009054906101000a900473ffffffffffffffffffffffffffffffffffffffff1673ffffffffffffffffffffffffffffffffffffffff1614611995576040517f08c379a00000000000000000000000000000000000000000000000000000000081526004018080602001828103825260208152602001807f7468652061646d696e6973747261746f7220646f6573206e6f7420657869737481525060200191505060405180910390fd5b6000801b861415611a0e576040517f08c379a00000000000000000000000000000000000000000000000000000000081526004018080602001828103825260158152602001807f7a65726f20627974657320697320696e76616c6964000000000000000000000081525060200191505060405180910390fd5b836007600088815260200190815260200160002060006101000a81548173ffffffffffffffffffffffffffffffffffffffff021916908373ffffffffffffffffffffffffffffffffffffffff160217905550600860008573ffffffffffffffffffffffffffffffffffffffff1673ffffffffffffffffffffffffffffffffffffffff168152602001908152602001600020869080600181540180825580915050906001820390600052602060002001600090919290919091505550505050505050565b6000611b1383836040518060400160405280601e81526020017f536166654d6174683a207375627472616374696f6e206f766572666c6f770000815250611bdc565b905092915050565b600080828401905083811015611b99576040517f08c379a000000000000000000000000000000000000000000000000000000000815260040180806020018281038252601b8152602001807f536166654d6174683a206164646974696f6e206f766572666c6f77000000000081525060200191505060405180910390fd5b8091505092915050565b6001816000016000828254019250508190555050565b611bd160018260000154611ad190919063ffffffff16565b816000018190555050565b6000838311158290611c89576040517f08c379a00000000000000000000000000000000000000000000000000000000081526004018080602001828103825283818151815260200191508051906020019080838360005b83811015611c4e578082015181840152602081019050611c33565b50505050905090810190601f168015611c7b5780820380516001836020036101000a031916815260200191505b509250505060405180910390fd5b506000838503905080915050939250505056fe74686520616d6f756e74206973206c6172676572207468616e20756e61737369676e65642062616c616e6365746865207661726961626c655f696e64657820646f6573206e6f74207370656369667920746865207661726961626c655f69646f6e6c79206368696c642063616e2077697468647261772074686520627564676574a265627a7a72305820329b900cf06b2494f68acb9816ed91def918f23b8cc800ab41b3e4c2925a9a6864736f6c63430005090032",
  "source": "pragma solidity >=0.5.0;\n\nimport \"openzeppelin-solidity/contracts/math/SafeMath.sol\";\nimport \"openzeppelin-solidity/contracts/drafts/Counters.sol\";\n\ncontract Administration {\n    using SafeMath for uint256;\n    using Counters for Counters.Counter;\n\n    address[] internal members;\n    mapping (address=>uint256) internal index_of_member;\n    Counters.Counter private members_number = Counters.Counter(0);\n    address internal parent;\n    address[] internal children;\n    mapping (address=>uint256) internal index_of_child;\n    Counters.Counter private children_number = Counters.Counter(0);\n    mapping(bytes32=>address) internal administrator_of_variable;\n    mapping(address=>bytes32[]) internal variables_of_administrator;\n    mapping(address=>uint256) internal budgets;\n    uint256 internal assigned_balance;\n\n    /*modifier onlyParent {\n        require(msg.sender==parent,\"this function can be called only by parent\");\n        _;\n    }*/\n\n    modifier onlyMember(address member) {\n        require(member!=address(0),\"zero address is invalid\");\n        require(index_of_member[member]!=0,\"the member does not exist\");\n        _;\n    }\n\n    modifier onlyChild(address child) {\n        require(child!=address(0),\"zero address is invalid\");\n        require(index_of_child[child] != 0,\"the child does not exist\");\n        _;\n    }\n\n    modifier onlyAdministrator(address administrator, bytes32 variable_id) {\n        require(administrator_of_variable[variable_id]!=address(0),\"zero address is invalid\");\n        require(administrator_of_variable[variable_id]==administrator,\"the administrator does not exist\");\n        _;\n    }\n\n    modifier onlyAuthorized(address administrator, bytes32 variable_id, uint256 variable_index) {\n        require(administrator!=address(0),\"zero address is invalid\");\n        require(variables_of_administrator[administrator][variable_index]==variable_id,\"the variable_index does not specify the variable_id\");\n        require(administrator_of_variable[variable_id]==administrator,\"the administrator does not exist\");\n        _;\n    }\n\n    constructor(address _parent) public {\n        parent = _parent;\n    }\n\n    function register_member(address new_member) public {\n        require(new_member!=address(0),\"zero address is invalid\");\n        uint256 index = members.push(new_member);\n        index_of_member[new_member] = index;\n        members_number.increment();\n    }\n\n    function dismiss_member(address member) public onlyMember(member) {\n        uint256 index = index_of_member[member];\n        members[index] = address(0);\n        index_of_member[member] = 0;\n        members_number.decrement();\n    }\n\n    function add_child(address child) public {\n        require(child!=address(0),\"zero address is invalid\");\n        uint256 index = children.push(child);\n        index_of_child[child] = index;\n        children_number.increment();\n    }\n\n    function abolish_child(address child) public onlyChild(child){\n        uint256 index = index_of_child[child];\n        children[index] = address(0);\n        index_of_child[child] = 0;\n        children_number.decrement();\n        uint256 budget = budgets[child];\n        budgets[child] = 0;\n        SafeMath.sub(assigned_balance,budget);\n        bytes32[] memory variables = variables_of_administrator[child];\n        uint len = variables.length;\n        uint i;\n        for(i=0;i<len;i++){\n            bytes32 variable_id = variables[i];\n            if(variable_id==bytes32(0)) continue;\n            _deprive_authority(child,variable_id,i);\n        }\n    }\n\n    function add_authority(bytes32 variable_id) public {\n        require(variable_id!=bytes32(0),\"zero bytes is invalid\");\n        require(administrator_of_variable[variable_id]==address(0),\"the variable already exists\");\n        administrator_of_variable[variable_id] = address(this);\n        variables_of_administrator[address(this)].push(variable_id);\n    }\n\n    function delegate_authority(bytes32 variable_id, uint256 variable_index, address new_administrator) public onlyAuthorized(msg.sender,variable_id,variable_index) {\n        require(variable_id!=bytes32(0),\"zero bytes is invalid\");\n        administrator_of_variable[variable_id] = new_administrator;\n        variables_of_administrator[new_administrator].push(variable_id);\n    }\n\n    function deprive_authority(bytes32 variable_id, uint256 variable_index) public {\n        _deprive_authority(msg.sender,variable_id,variable_index);\n    }\n\n    function _deprive_authority(address administrator, bytes32 variable_id, uint256 variable_index) public onlyAuthorized(administrator,variable_id,variable_index) {\n        require(variable_id!=bytes32(0),\"zero bytes is invalid\");\n        administrator_of_variable[variable_id] = address(this);\n        variables_of_administrator[administrator][variable_index] = bytes32(0);\n    }\n\n    function assign_budget(address child, uint256 amount) public onlyChild(child) {\n        uint256 current_balance = address(this).balance;\n        uint256 unassigned_balance = SafeMath.sub(current_balance,assigned_balance);\n        require(SafeMath.sub(unassigned_balance,amount)>=0,\"the amount is larger than unassigned balance\");\n        assigned_balance = SafeMath.add(assigned_balance,amount);\n        budgets[child] = SafeMath.add(budgets[child],amount);\n    }\n\n    function release_child_budget(address payable child) public onlyChild(child) {\n        require(msg.sender==child,\"only child can withdraw the budget\");\n        uint256 amount = budgets[child];\n        budgets[child] = 0;\n        assigned_balance = SafeMath.sub(assigned_balance,amount);\n        msg.sender.transfer(amount);\n    }\n\n    function () payable external {\n        require(msg.data.length == 0);\n    }\n}\n",
  "sourcePath": "/Users/suegamisora/GoogleDrive/projects/degov_contract/contracts/Administration.sol",
  "compiler": {
    "name": "solc",
    "version": "0.5.9+commit.e560f70d.Emscripten.clang"
  },
  "schemaVersion": "3.0.23",
  "updatedAt": "2020-02-10T05:31:48.345Z",
  "devdoc": {
    "methods": {}
  },
  "userdoc": {
    "methods": {}
  }
}