{
  "contractName": "DelegatedGovernment",
  "abi": [
    {
      "constant": true,
      "inputs": [],
      "name": "assigned_balance",
      "outputs": [
        {
          "name": "",
          "type": "uint256"
        }
      ],
      "payable": false,
      "stateMutability": "view",
      "type": "function"
    },
    {
      "constant": true,
      "inputs": [
        {
          "name": "",
          "type": "address"
        }
      ],
      "name": "budgets",
      "outputs": [
        {
          "name": "",
          "type": "uint256"
        }
      ],
      "payable": false,
      "stateMutability": "view",
      "type": "function"
    },
    {
      "constant": true,
      "inputs": [
        {
          "name": "",
          "type": "bytes32"
        }
      ],
      "name": "authorities",
      "outputs": [
        {
          "name": "",
          "type": "address"
        }
      ],
      "payable": false,
      "stateMutability": "view",
      "type": "function"
    },
    {
      "constant": true,
      "inputs": [
        {
          "name": "",
          "type": "uint256"
        }
      ],
      "name": "members",
      "outputs": [
        {
          "name": "",
          "type": "address"
        }
      ],
      "payable": false,
      "stateMutability": "view",
      "type": "function"
    },
    {
      "constant": true,
      "inputs": [],
      "name": "parent",
      "outputs": [
        {
          "name": "",
          "type": "address"
        }
      ],
      "payable": false,
      "stateMutability": "view",
      "type": "function"
    },
    {
      "constant": true,
      "inputs": [
        {
          "name": "",
          "type": "uint256"
        }
      ],
      "name": "children",
      "outputs": [
        {
          "name": "",
          "type": "address"
        }
      ],
      "payable": false,
      "stateMutability": "view",
      "type": "function"
    },
    {
      "inputs": [],
      "payable": false,
      "stateMutability": "nonpayable",
      "type": "constructor"
    },
    {
      "payable": true,
      "stateMutability": "payable",
      "type": "fallback"
    },
    {
      "constant": false,
      "inputs": [
        {
          "name": "new_member",
          "type": "address"
        }
      ],
      "name": "register_member",
      "outputs": [],
      "payable": false,
      "stateMutability": "nonpayable",
      "type": "function"
    },
    {
      "constant": false,
      "inputs": [
        {
          "name": "member_index",
          "type": "uint256"
        }
      ],
      "name": "dismiss_member",
      "outputs": [],
      "payable": false,
      "stateMutability": "nonpayable",
      "type": "function"
    },
    {
      "constant": false,
      "inputs": [
        {
          "name": "child",
          "type": "address"
        }
      ],
      "name": "generate_child",
      "outputs": [],
      "payable": false,
      "stateMutability": "nonpayable",
      "type": "function"
    },
    {
      "constant": false,
      "inputs": [
        {
          "name": "child_index",
          "type": "uint256"
        }
      ],
      "name": "abolish_child",
      "outputs": [],
      "payable": false,
      "stateMutability": "nonpayable",
      "type": "function"
    },
    {
      "constant": false,
      "inputs": [
        {
          "name": "variable_id",
          "type": "bytes32"
        }
      ],
      "name": "add_authority",
      "outputs": [],
      "payable": false,
      "stateMutability": "nonpayable",
      "type": "function"
    },
    {
      "constant": false,
      "inputs": [
        {
          "name": "variable_id",
          "type": "bytes32"
        },
        {
          "name": "new_administrator",
          "type": "address"
        }
      ],
      "name": "delegate_authority",
      "outputs": [],
      "payable": false,
      "stateMutability": "nonpayable",
      "type": "function"
    },
    {
      "constant": false,
      "inputs": [
        {
          "name": "variable_id",
          "type": "bytes32"
        }
      ],
      "name": "deprive_authority",
      "outputs": [],
      "payable": false,
      "stateMutability": "nonpayable",
      "type": "function"
    },
    {
      "constant": false,
      "inputs": [
        {
          "name": "child_index",
          "type": "uint128"
        },
        {
          "name": "amount",
          "type": "uint256"
        }
      ],
      "name": "assign_budget",
      "outputs": [],
      "payable": false,
      "stateMutability": "nonpayable",
      "type": "function"
    },
    {
      "constant": false,
      "inputs": [
        {
          "name": "child_index",
          "type": "uint128"
        }
      ],
      "name": "release_child_budget",
      "outputs": [],
      "payable": false,
      "stateMutability": "nonpayable",
      "type": "function"
    }
  ],
  "bytecode": "0x608060405260405180602001604052806000815250600160008201518160000155505060405180602001604052806000815250600460008201518160000155505034801561004c57600080fd5b5033600260006101000a81548173ffffffffffffffffffffffffffffffffffffffff021916908373ffffffffffffffffffffffffffffffffffffffff1602179055506115e48061009d6000396000f3fe6080604052600436106100e85760003560e01c80635daf08ca1161008a578063a0aa85e011610059578063a0aa85e0146104af578063d2106ff314610506578063d97082f414610553578063f1e5a0dd1461058e576100e8565b80635daf08ca1461032757806360f96a8f146103a25780637002ce42146103f95780637462722a14610474576100e8565b806314d34f06116100c657806314d34f06146101e55780632561e632146102205780632f8b41761461025b57806350c1ae28146102d6576100e8565b8063010c14e8146100fa5780630f19584714610155578063147e7e6614610180575b600080369050146100f857600080fd5b005b34801561010657600080fd5b506101536004803603604081101561011d57600080fd5b8101908080359060200190929190803573ffffffffffffffffffffffffffffffffffffffff1690602001909291905050506105df565b005b34801561016157600080fd5b5061016a610693565b6040518082815260200191505060405180910390f35b34801561018c57600080fd5b506101cf600480360360208110156101a357600080fd5b81019080803573ffffffffffffffffffffffffffffffffffffffff169060200190929190505050610699565b6040518082815260200191505060405180910390f35b3480156101f157600080fd5b5061021e6004803603602081101561020857600080fd5b81019080803590602001909291905050506106b1565b005b34801561022c57600080fd5b506102596004803603602081101561024357600080fd5b81019080803590602001909291905050506107db565b005b34801561026757600080fd5b506102946004803603602081101561027e57600080fd5b81019080803590602001909291905050506108ba565b604051808273ffffffffffffffffffffffffffffffffffffffff1673ffffffffffffffffffffffffffffffffffffffff16815260200191505060405180910390f35b3480156102e257600080fd5b50610325600480360360208110156102f957600080fd5b81019080803573ffffffffffffffffffffffffffffffffffffffff1690602001909291905050506108ed565b005b34801561033357600080fd5b506103606004803603602081101561034a57600080fd5b8101908080359060200190929190505050610960565b604051808273ffffffffffffffffffffffffffffffffffffffff1673ffffffffffffffffffffffffffffffffffffffff16815260200191505060405180910390f35b3480156103ae57600080fd5b506103b761099c565b604051808273ffffffffffffffffffffffffffffffffffffffff1673ffffffffffffffffffffffffffffffffffffffff16815260200191505060405180910390f35b34801561040557600080fd5b506104326004803603602081101561041c57600080fd5b81019080803590602001909291905050506109c2565b604051808273ffffffffffffffffffffffffffffffffffffffff1673ffffffffffffffffffffffffffffffffffffffff16815260200191505060405180910390f35b34801561048057600080fd5b506104ad6004803603602081101561049757600080fd5b81019080803590602001909291905050506109fe565b005b3480156104bb57600080fd5b50610504600480360360408110156104d257600080fd5b8101908080356fffffffffffffffffffffffffffffffff16906020019092919080359060200190929190505050610b82565b005b34801561051257600080fd5b506105516004803603602081101561052957600080fd5b8101908080356fffffffffffffffffffffffffffffffff169060200190929190505050610d91565b005b34801561055f57600080fd5b5061058c6004803603602081101561057657600080fd5b8101908080359060200190929190505050610fd7565b005b34801561059a57600080fd5b506105dd600480360360208110156105b157600080fd5b81019080803573ffffffffffffffffffffffffffffffffffffffff16906020019092919050505061102c565b005b6105e882611145565b61063d576040517f08c379a000000000000000000000000000000000000000000000000000000000815260040180806020018281038252603981526020018061154d6039913960400191505060405180910390fd5b806005600084815260200190815260200160002060006101000a81548173ffffffffffffffffffffffffffffffffffffffff021916908373ffffffffffffffffffffffffffffffffffffffff1602179055505050565b60075481565b60066020528060005260406000206000915090505481565b600073ffffffffffffffffffffffffffffffffffffffff166005600083815260200190815260200160002060009054906101000a900473ffffffffffffffffffffffffffffffffffffffff1673ffffffffffffffffffffffffffffffffffffffff1614610786576040517f08c379a000000000000000000000000000000000000000000000000000000000815260040180806020018281038252601b8152602001807f746865207661726961626c6520616c726561647920657869737473000000000081525060200191505060405180910390fd5b306005600083815260200190815260200160002060006101000a81548173ffffffffffffffffffffffffffffffffffffffff021916908373ffffffffffffffffffffffffffffffffffffffff16021790555050565b6107e48161121b565b610856576040517f08c379a00000000000000000000000000000000000000000000000000000000081526004018080602001828103825260188152602001807f746865206368696c6420646f6573206e6f74206578697374000000000000000081525060200191505060405180910390fd5b60006003828154811061086557fe5b9060005260206000200160006101000a81548173ffffffffffffffffffffffffffffffffffffffff021916908373ffffffffffffffffffffffffffffffffffffffff1602179055506108b760046112a0565b50565b60056020528060005260406000206000915054906101000a900473ffffffffffffffffffffffffffffffffffffffff1681565b60038190806001815401808255809150509060018203906000526020600020016000909192909190916101000a81548173ffffffffffffffffffffffffffffffffffffffff021916908373ffffffffffffffffffffffffffffffffffffffff1602179055505061095d60046112c3565b50565b6000818154811061096d57fe5b906000526020600020016000915054906101000a900473ffffffffffffffffffffffffffffffffffffffff1681565b600260009054906101000a900473ffffffffffffffffffffffffffffffffffffffff1681565b600381815481106109cf57fe5b906000526020600020016000915054906101000a900473ffffffffffffffffffffffffffffffffffffffff1681565b600260009054906101000a900473ffffffffffffffffffffffffffffffffffffffff1673ffffffffffffffffffffffffffffffffffffffff163373ffffffffffffffffffffffffffffffffffffffff1614610aa4576040517f08c379a000000000000000000000000000000000000000000000000000000000815260040180806020018281038252602a815260200180611586602a913960400191505060405180910390fd5b610aad816112d9565b610b1f576040517f08c379a00000000000000000000000000000000000000000000000000000000081526004018080602001828103825260198152602001807f746865206d656d62657220646f6573206e6f742065786973740000000000000081525060200191505060405180910390fd5b6000808281548110610b2d57fe5b9060005260206000200160006101000a81548173ffffffffffffffffffffffffffffffffffffffff021916908373ffffffffffffffffffffffffffffffffffffffff160217905550610b7f60016112a0565b50565b610b9d826fffffffffffffffffffffffffffffffff1661121b565b610c0f576040517f08c379a00000000000000000000000000000000000000000000000000000000081526004018080602001828103825260188152602001807f746865206368696c6420646f6573206e6f74206578697374000000000000000081525060200191505060405180910390fd5b60003073ffffffffffffffffffffffffffffffffffffffff163190506000610c398260075461135e565b90506000610c47828561135e565b1015610c9e576040517f08c379a000000000000000000000000000000000000000000000000000000000815260040180806020018281038252602c8152602001806114ff602c913960400191505060405180910390fd5b610caa600754846113a8565b60078190555060006003856fffffffffffffffffffffffffffffffff1681548110610cd157fe5b9060005260206000200160009054906101000a900473ffffffffffffffffffffffffffffffffffffffff169050610d47600660008373ffffffffffffffffffffffffffffffffffffffff1673ffffffffffffffffffffffffffffffffffffffff16815260200190815260200160002054856113a8565b600660008373ffffffffffffffffffffffffffffffffffffffff1673ffffffffffffffffffffffffffffffffffffffff168152602001908152602001600020819055505050505050565b610dac816fffffffffffffffffffffffffffffffff1661121b565b610e1e576040517f08c379a00000000000000000000000000000000000000000000000000000000081526004018080602001828103825260188152602001807f746865206368696c6420646f6573206e6f74206578697374000000000000000081525060200191505060405180910390fd5b60006003826fffffffffffffffffffffffffffffffff1681548110610e3f57fe5b9060005260206000200160009054906101000a900473ffffffffffffffffffffffffffffffffffffffff1690508073ffffffffffffffffffffffffffffffffffffffff163373ffffffffffffffffffffffffffffffffffffffff1614610ef0576040517f08c379a000000000000000000000000000000000000000000000000000000000815260040180806020018281038252602281526020018061152b6022913960400191505060405180910390fd5b6000600660008373ffffffffffffffffffffffffffffffffffffffff1673ffffffffffffffffffffffffffffffffffffffff1681526020019081526020016000205490506000600660008473ffffffffffffffffffffffffffffffffffffffff1673ffffffffffffffffffffffffffffffffffffffff16815260200190815260200160002081905550610f856007548261135e565b6007819055503373ffffffffffffffffffffffffffffffffffffffff166108fc829081150290604051600060405180830381858888f19350505050158015610fd1573d6000803e3d6000fd5b50505050565b306005600083815260200190815260200160002060006101000a81548173ffffffffffffffffffffffffffffffffffffffff021916908373ffffffffffffffffffffffffffffffffffffffff16021790555050565b600260009054906101000a900473ffffffffffffffffffffffffffffffffffffffff1673ffffffffffffffffffffffffffffffffffffffff163373ffffffffffffffffffffffffffffffffffffffff16146110d2576040517f08c379a000000000000000000000000000000000000000000000000000000000815260040180806020018281038252602a815260200180611586602a913960400191505060405180910390fd5b60008190806001815401808255809150509060018203906000526020600020016000909192909190916101000a81548173ffffffffffffffffffffffffffffffffffffffff021916908373ffffffffffffffffffffffffffffffffffffffff1602179055505061114260016112c3565b50565b60008073ffffffffffffffffffffffffffffffffffffffff166005600084815260200190815260200160002060009054906101000a900473ffffffffffffffffffffffffffffffffffffffff1673ffffffffffffffffffffffffffffffffffffffff161415801561121457503373ffffffffffffffffffffffffffffffffffffffff166005600084815260200190815260200160002060009054906101000a900473ffffffffffffffffffffffffffffffffffffffff1673ffffffffffffffffffffffffffffffffffffffff16145b9050919050565b60006112276004611430565b821080156112995750600073ffffffffffffffffffffffffffffffffffffffff166003838154811061125557fe5b9060005260206000200160009054906101000a900473ffffffffffffffffffffffffffffffffffffffff1673ffffffffffffffffffffffffffffffffffffffff1614155b9050919050565b6112b86001826000015461135e90919063ffffffff16565b816000018190555050565b6001816000016000828254019250508190555050565b60006112e56001611430565b821080156113575750600073ffffffffffffffffffffffffffffffffffffffff166000838154811061131357fe5b9060005260206000200160009054906101000a900473ffffffffffffffffffffffffffffffffffffffff1673ffffffffffffffffffffffffffffffffffffffff1614155b9050919050565b60006113a083836040518060400160405280601e81526020017f536166654d6174683a207375627472616374696f6e206f766572666c6f77000081525061143e565b905092915050565b600080828401905083811015611426576040517f08c379a000000000000000000000000000000000000000000000000000000000815260040180806020018281038252601b8152602001807f536166654d6174683a206164646974696f6e206f766572666c6f77000000000081525060200191505060405180910390fd5b8091505092915050565b600081600001549050919050565b60008383111582906114eb576040517f08c379a00000000000000000000000000000000000000000000000000000000081526004018080602001828103825283818151815260200191508051906020019080838360005b838110156114b0578082015181840152602081019050611495565b50505050905090810190601f1680156114dd5780820380516001836020036101000a031916815260200191505b509250505060405180910390fd5b506000838503905080915050939250505056fe74686520616d6f756e74206973206c6172676572207468616e20756e61737369676e65642062616c616e63656f6e6c79206368696c642063616e2077697468647261772074686520627564676574746869732066756e6374696f6e2063616e2062652063616c6c6564206f6e6c792062792063757272656e742061646d696e6973747261746f72746869732066756e6374696f6e2063616e2062652063616c6c6564206f6e6c7920627920706172656e74a265627a7a723058204789c368eb4932f5ef75a414d28e8f4ee0ee5ccd245ac7d210d7247fe9aa4e4a64736f6c63430005090032",
  "source": "pragma solidity >=0.5.0;\n\nimport \"openzeppelin-solidity/contracts/drafts/Counters.sol\";\n\ncontract DelegatedGovernment {\n    using SafeMath for uint256;\n    using Counters for Counters.Counter;\n\n    address[] public members;\n    Counters.Counter private members_number = Counters.Counter(0);\n    address public parent;\n    address[] public children;\n    Counters.Counter private children_number = Counters.Counter(0);\n    mapping(bytes32=>address) public authorities;\n\n    mapping(address=>uint256) public budgets;\n    uint256 public assigned_balance;\n\n    modifier onlyParent {\n        require(msg.sender==parent,\"this function can be called only by parent\");\n        _;\n    }\n\n    constructor() public {\n        parent = msg.sender;\n    }\n\n    function register_member(address new_member) public onlyParent {\n        members.push(new_member);\n        members_number.increment();\n    }\n\n    function dismiss_member(uint256 member_index) public onlyParent {\n        require(_isMember(member_index),\"the member does not exist\");\n        members[member_index] = address(0);\n        members_number.decrement();\n    }\n\n    function generate_child(address child) public {\n        children.push(child);\n        children_number.increment();\n    }\n\n    function abolish_child(uint256 child_index) public {\n        require(_isChild(child_index),\"the child does not exist\");\n        children[child_index] = address(0);\n        children_number.decrement();\n    }\n\n    function add_authority(bytes32 variable_id) public {\n        require(authorities[variable_id]==address(0),\"the variable already exists\");\n        authorities[variable_id] = address(this);\n    }\n\n    function delegate_authority(bytes32 variable_id, address new_administrator) public {\n        require(_isAdministrator(variable_id),\"this function can be called only by current administrator\");\n        authorities[variable_id] = new_administrator;\n    }\n\n    function deprive_authority(bytes32 variable_id) public {\n        authorities[variable_id] = address(this);\n    }\n\n    function assign_budget(uint128 child_index, uint256 amount) public {\n        require(_isChild(child_index),\"the child does not exist\");\n        uint256 current_balance = address(this).balance;\n        uint256 unassigned_balance = SafeMath.sub(current_balance,assigned_balance);\n        require(SafeMath.sub(unassigned_balance,amount)>=0,\"the amount is larger than unassigned balance\");\n        assigned_balance = SafeMath.add(assigned_balance,amount);\n        address child = children[child_index];\n        budgets[child] = SafeMath.add(budgets[child],amount);\n    }\n\n    function release_child_budget(uint128 child_index) public {\n        require(_isChild(child_index),\"the child does not exist\");\n        address payable child = address(uint160(children[child_index]));\n        require(msg.sender==child,\"only child can withdraw the budget\");\n        uint256 amount = budgets[child];\n        budgets[child] = 0;\n        assigned_balance = SafeMath.sub(assigned_balance,amount);\n        msg.sender.transfer(amount);\n    }\n\n    function _isMember(uint256 member_index) private view returns(bool) {\n        return member_index<members_number.current() && members[member_index]!=address(0);\n    }\n\n    function _isChild(uint child_index) private view returns(bool) {\n        return child_index<children_number.current() && children[child_index]!=address(0);\n    }\n\n    function _isAdministrator(bytes32 variable_id) private view returns(bool) {\n        return authorities[variable_id]!=address(0) && authorities[variable_id] == msg.sender;\n    }\n\n    function () payable external {\n        require(msg.data.length == 0);\n    }\n}\n",
  "sourcePath": "/Users/suegamisora/GoogleDrive/projects/degov_contract/contracts/DelegatedGovernment.sol",
  "compiler": {
    "name": "solc",
    "version": "0.5.9+commit.e560f70d.Emscripten.clang"
  },
  "schemaVersion": "3.0.23",
  "updatedAt": "2020-02-09T17:43:41.974Z",
  "devdoc": {
    "methods": {}
  },
  "userdoc": {
    "methods": {}
  }
}