{
  "contractName": "RootCommunity",
  "abi": [
    {
      "constant": true,
      "inputs": [
        {
          "name": "",
          "type": "bytes32"
        }
      ],
      "name": "proposals",
      "outputs": [
        {
          "name": "id",
          "type": "bytes32"
        },
        {
          "name": "uri",
          "type": "string"
        },
        {
          "name": "proposer",
          "type": "address"
        },
        {
          "name": "exist",
          "type": "bool"
        }
      ],
      "payable": false,
      "stateMutability": "view",
      "type": "function"
    },
    {
      "constant": true,
      "inputs": [
        {
          "name": "",
          "type": "bytes32"
        }
      ],
      "name": "state_of_proposal",
      "outputs": [
        {
          "name": "",
          "type": "uint8"
        }
      ],
      "payable": false,
      "stateMutability": "view",
      "type": "function"
    },
    {
      "constant": false,
      "inputs": [
        {
          "name": "administrator",
          "type": "address"
        },
        {
          "name": "variable_id",
          "type": "bytes32"
        },
        {
          "name": "variable_index",
          "type": "uint256"
        }
      ],
      "name": "_deprive_authority",
      "outputs": [],
      "payable": false,
      "stateMutability": "nonpayable",
      "type": "function"
    },
    {
      "inputs": [
        {
          "name": "_government",
          "type": "address"
        },
        {
          "name": "_selector",
          "type": "address"
        }
      ],
      "payable": false,
      "stateMutability": "nonpayable",
      "type": "constructor"
    },
    {
      "payable": true,
      "stateMutability": "payable",
      "type": "fallback"
    },
    {
      "constant": false,
      "inputs": [
        {
          "name": "id",
          "type": "bytes32"
        }
      ],
      "name": "set_evidence",
      "outputs": [],
      "payable": false,
      "stateMutability": "nonpayable",
      "type": "function"
    },
    {
      "constant": false,
      "inputs": [
        {
          "name": "uri",
          "type": "string"
        }
      ],
      "name": "add_proposal",
      "outputs": [],
      "payable": false,
      "stateMutability": "nonpayable",
      "type": "function"
    },
    {
      "constant": false,
      "inputs": [
        {
          "name": "id",
          "type": "bytes32"
        }
      ],
      "name": "reject_proposal",
      "outputs": [],
      "payable": false,
      "stateMutability": "nonpayable",
      "type": "function"
    },
    {
      "constant": false,
      "inputs": [
        {
          "name": "new_member",
          "type": "address"
        }
      ],
      "name": "register_member",
      "outputs": [],
      "payable": false,
      "stateMutability": "nonpayable",
      "type": "function"
    },
    {
      "constant": false,
      "inputs": [
        {
          "name": "member",
          "type": "address"
        }
      ],
      "name": "dismiss_member",
      "outputs": [],
      "payable": false,
      "stateMutability": "nonpayable",
      "type": "function"
    },
    {
      "constant": false,
      "inputs": [
        {
          "name": "child",
          "type": "address"
        }
      ],
      "name": "add_child",
      "outputs": [],
      "payable": false,
      "stateMutability": "nonpayable",
      "type": "function"
    },
    {
      "constant": false,
      "inputs": [
        {
          "name": "child",
          "type": "address"
        }
      ],
      "name": "abolish_child",
      "outputs": [],
      "payable": false,
      "stateMutability": "nonpayable",
      "type": "function"
    },
    {
      "constant": false,
      "inputs": [
        {
          "name": "variable_id",
          "type": "bytes32"
        }
      ],
      "name": "add_authority",
      "outputs": [],
      "payable": false,
      "stateMutability": "nonpayable",
      "type": "function"
    },
    {
      "constant": false,
      "inputs": [
        {
          "name": "variable_id",
          "type": "bytes32"
        },
        {
          "name": "variable_index",
          "type": "uint256"
        },
        {
          "name": "new_administrator",
          "type": "address"
        }
      ],
      "name": "delegate_authority",
      "outputs": [],
      "payable": false,
      "stateMutability": "nonpayable",
      "type": "function"
    },
    {
      "constant": false,
      "inputs": [
        {
          "name": "variable_id",
          "type": "bytes32"
        },
        {
          "name": "variable_index",
          "type": "uint256"
        }
      ],
      "name": "deprive_authority",
      "outputs": [],
      "payable": false,
      "stateMutability": "nonpayable",
      "type": "function"
    },
    {
      "constant": false,
      "inputs": [
        {
          "name": "child",
          "type": "address"
        },
        {
          "name": "amount",
          "type": "uint256"
        }
      ],
      "name": "assign_budget",
      "outputs": [],
      "payable": false,
      "stateMutability": "nonpayable",
      "type": "function"
    },
    {
      "constant": false,
      "inputs": [
        {
          "name": "child",
          "type": "address"
        }
      ],
      "name": "release_child_budget",
      "outputs": [],
      "payable": false,
      "stateMutability": "nonpayable",
      "type": "function"
    },
    {
      "constant": true,
      "inputs": [
        {
          "name": "id",
          "type": "bytes32"
        }
      ],
      "name": "isApprovaled",
      "outputs": [
        {
          "name": "",
          "type": "bool"
        }
      ],
      "payable": false,
      "stateMutability": "view",
      "type": "function"
    }
  ],
  "bytecode": "0x60806040526040518060200160405280600081525060026000820151816000015550506040518060200160405280600081525060066000820151816000015550506000600d60006101000a81548173ffffffffffffffffffffffffffffffffffffffff021916908373ffffffffffffffffffffffffffffffffffffffff1602179055506000600e60006101000a81548173ffffffffffffffffffffffffffffffffffffffff021916908373ffffffffffffffffffffffffffffffffffffffff1602179055506000801b600f553480156100d757600080fd5b506040516200452638038062004526833981810160405260408110156100fc57600080fd5b810190808051906020019092919080519060200190929190505050600080600360006101000a81548173ffffffffffffffffffffffffffffffffffffffff021916908373ffffffffffffffffffffffffffffffffffffffff1602179055505081600d60006101000a81548173ffffffffffffffffffffffffffffffffffffffff021916908373ffffffffffffffffffffffffffffffffffffffff16021790555080600e60006101000a81548173ffffffffffffffffffffffffffffffffffffffff021916908373ffffffffffffffffffffffffffffffffffffffff160217905550505061433780620001ef6000396000f3fe6080604052600436106100f35760003560e01c8063c59a461f1161008a578063ee70d29d11610059578063ee70d29d146105c8578063f18036481461062d578063f1e5a0dd14610668578063f571051a146106b9576100f3565b8063c59a461f1461047e578063c9d20a22146104cf578063e95f0d0314610524578063eaa99e4014610577576100f3565b80633405c9af116100c65780633405c9af146102e557806343cf1e6e146103365780637bee7ef21461037b578063b123726114610443576100f3565b806302179eba146101055780630ca2568d1461016057806314d34f06146101b157806332ed5b12146101ec575b6000803690501461010357600080fd5b005b34801561011157600080fd5b5061015e6004803603604081101561012857600080fd5b81019080803573ffffffffffffffffffffffffffffffffffffffff1690602001909291908035906020019092919050505061071e565b005b34801561016c57600080fd5b506101af6004803603602081101561018357600080fd5b81019080803573ffffffffffffffffffffffffffffffffffffffff169060200190929190505050610a73565b005b3480156101bd57600080fd5b506101ea600480360360208110156101d457600080fd5b8101908080359060200190929190505050610dc6565b005b3480156101f857600080fd5b506102256004803603602081101561020f57600080fd5b8101908080359060200190929190505050611119565b60405180858152602001806020018473ffffffffffffffffffffffffffffffffffffffff1673ffffffffffffffffffffffffffffffffffffffff16815260200183151515158152602001828103825285818151815260200191508051906020019080838360005b838110156102a757808201518184015260208101905061028c565b50505050905090810190601f1680156102d45780820380516001836020036101000a031916815260200191505b509550505050505060405180910390f35b3480156102f157600080fd5b506103346004803603602081101561030857600080fd5b81019080803573ffffffffffffffffffffffffffffffffffffffff16906020019092919050505061120e565b005b34801561034257600080fd5b506103796004803603604081101561035957600080fd5b810190808035906020019092919080359060200190929190505050611561565b005b34801561038757600080fd5b506104416004803603602081101561039e57600080fd5b81019080803590602001906401000000008111156103bb57600080fd5b8201836020820111156103cd57600080fd5b803590602001918460018302840111640100000000831117156103ef57600080fd5b91908080601f016020809104026020016040519081016040528093929190818152602001838380828437600081840152601f19601f8201169050808301925050505050505091929192905050506118b6565b005b34801561044f57600080fd5b5061047c6004803603602081101561046657600080fd5b8101908080359060200190929190505050611bf6565b005b34801561048a57600080fd5b506104cd600480360360208110156104a157600080fd5b81019080803573ffffffffffffffffffffffffffffffffffffffff169060200190929190505050611c00565b005b3480156104db57600080fd5b50610508600480360360208110156104f257600080fd5b8101908080359060200190929190505050611cb2565b604051808260ff1660ff16815260200191505060405180910390f35b34801561053057600080fd5b5061055d6004803603602081101561054757600080fd5b8101908080359060200190929190505050611cd2565b604051808215151515815260200191505060405180910390f35b34801561058357600080fd5b506105c66004803603602081101561059a57600080fd5b81019080803573ffffffffffffffffffffffffffffffffffffffff169060200190929190505050611d44565b005b3480156105d457600080fd5b5061062b600480360360608110156105eb57600080fd5b81019080803573ffffffffffffffffffffffffffffffffffffffff1690602001909291908035906020019092919080359060200190929190505050612097565b005b34801561063957600080fd5b506106666004803603602081101561065057600080fd5b81019080803590602001909291905050506123ec565b005b34801561067457600080fd5b506106b76004803603602081101561068b57600080fd5b81019080803573ffffffffffffffffffffffffffffffffffffffff1690602001909291905050506127c0565b005b3480156106c557600080fd5b5061071c600480360360608110156106dc57600080fd5b810190808035906020019092919080359060200190929190803573ffffffffffffffffffffffffffffffffffffffff169060200190929190505050612872565b005b6000801b600f541415610799576040517f08c379a00000000000000000000000000000000000000000000000000000000081526004018080602001828103825260158152602001807f7a65726f20627974657320697320696e76616c6964000000000000000000000081525060200191505060405180910390fd5b60011515600b6000600f54815260200190815260200160002060020160149054906101000a900460ff1615151480156107f757506001600c6000600f54815260200190815260200160002060009054906101000a900460ff1660ff16145b610869576040517f08c379a000000000000000000000000000000000000000000000000000000000815260040180806020018281038252601e8152602001807f7468652070726f706f73616c206973206e6f7420617070726f76616c6564000081525060200191505060405180910390fd5b6108a760405180807f70726f706f73616c73000000000000000000000000000000000000000000000081525060090190506040518091039020610dc6565b6108e560405180807f73746174655f6f665f70726f706f73616c00000000000000000000000000000081525060110190506040518091039020610dc6565b61092360405180807f676f7665726e6d656e7400000000000000000000000000000000000000000000815250600a0190506040518091039020610dc6565b61096160405180807f73656c6563746f7200000000000000000000000000000000000000000000000081525060080190506040518091039020610dc6565b61099f60405180807f65766964656e63655f6964000000000000000000000000000000000000000000815250600b0190506040518091039020610dc6565b610a0260405180807f70726f706f73616c730000000000000000000000000000000000000000000000815250600901905060405180910390206000600e60009054906101000a900473ffffffffffffffffffffffffffffffffffffffff16612872565b610a6560405180807f73746174655f6f665f70726f706f73616c000000000000000000000000000000815250601101905060405180910390206001600e60009054906101000a900473ffffffffffffffffffffffffffffffffffffffff16612872565b610a6f8282612bc9565b5050565b6000801b600f541415610aee576040517f08c379a00000000000000000000000000000000000000000000000000000000081526004018080602001828103825260158152602001807f7a65726f20627974657320697320696e76616c6964000000000000000000000081525060200191505060405180910390fd5b60011515600b6000600f54815260200190815260200160002060020160149054906101000a900460ff161515148015610b4c57506001600c6000600f54815260200190815260200160002060009054906101000a900460ff1660ff16145b610bbe576040517f08c379a000000000000000000000000000000000000000000000000000000000815260040180806020018281038252601e8152602001807f7468652070726f706f73616c206973206e6f7420617070726f76616c6564000081525060200191505060405180910390fd5b610bfc60405180807f70726f706f73616c73000000000000000000000000000000000000000000000081525060090190506040518091039020610dc6565b610c3a60405180807f73746174655f6f665f70726f706f73616c00000000000000000000000000000081525060110190506040518091039020610dc6565b610c7860405180807f676f7665726e6d656e7400000000000000000000000000000000000000000000815250600a0190506040518091039020610dc6565b610cb660405180807f73656c6563746f7200000000000000000000000000000000000000000000000081525060080190506040518091039020610dc6565b610cf460405180807f65766964656e63655f6964000000000000000000000000000000000000000000815250600b0190506040518091039020610dc6565b610d5760405180807f70726f706f73616c730000000000000000000000000000000000000000000000815250600901905060405180910390206000600e60009054906101000a900473ffffffffffffffffffffffffffffffffffffffff16612872565b610dba60405180807f73746174655f6f665f70726f706f73616c000000000000000000000000000000815250601101905060405180910390206001600e60009054906101000a900473ffffffffffffffffffffffffffffffffffffffff16612872565b610dc381612e57565b50565b6000801b600f541415610e41576040517f08c379a00000000000000000000000000000000000000000000000000000000081526004018080602001828103825260158152602001807f7a65726f20627974657320697320696e76616c6964000000000000000000000081525060200191505060405180910390fd5b60011515600b6000600f54815260200190815260200160002060020160149054906101000a900460ff161515148015610e9f57506001600c6000600f54815260200190815260200160002060009054906101000a900460ff1660ff16145b610f11576040517f08c379a000000000000000000000000000000000000000000000000000000000815260040180806020018281038252601e8152602001807f7468652070726f706f73616c206973206e6f7420617070726f76616c6564000081525060200191505060405180910390fd5b610f4f60405180807f70726f706f73616c73000000000000000000000000000000000000000000000081525060090190506040518091039020610dc6565b610f8d60405180807f73746174655f6f665f70726f706f73616c00000000000000000000000000000081525060110190506040518091039020610dc6565b610fcb60405180807f676f7665726e6d656e7400000000000000000000000000000000000000000000815250600a0190506040518091039020610dc6565b61100960405180807f73656c6563746f7200000000000000000000000000000000000000000000000081525060080190506040518091039020610dc6565b61104760405180807f65766964656e63655f6964000000000000000000000000000000000000000000815250600b0190506040518091039020610dc6565b6110aa60405180807f70726f706f73616c730000000000000000000000000000000000000000000000815250600901905060405180910390206000600e60009054906101000a900473ffffffffffffffffffffffffffffffffffffffff16612872565b61110d60405180807f73746174655f6f665f70726f706f73616c000000000000000000000000000000815250601101905060405180910390206001600e60009054906101000a900473ffffffffffffffffffffffffffffffffffffffff16612872565b61111681612fb5565b50565b600b602052806000526040600020600091509050806000015490806001018054600181600116156101000203166002900480601f0160208091040260200160405190810160405280929190818152602001828054600181600116156101000203166002900480156111cb5780601f106111a0576101008083540402835291602001916111cb565b820191906000526020600020905b8154815290600101906020018083116111ae57829003601f168201915b5050505050908060020160009054906101000a900473ffffffffffffffffffffffffffffffffffffffff16908060020160149054906101000a900460ff16905084565b6000801b600f541415611289576040517f08c379a00000000000000000000000000000000000000000000000000000000081526004018080602001828103825260158152602001807f7a65726f20627974657320697320696e76616c6964000000000000000000000081525060200191505060405180910390fd5b60011515600b6000600f54815260200190815260200160002060020160149054906101000a900460ff1615151480156112e757506001600c6000600f54815260200190815260200160002060009054906101000a900460ff1660ff16145b611359576040517f08c379a000000000000000000000000000000000000000000000000000000000815260040180806020018281038252601e8152602001807f7468652070726f706f73616c206973206e6f7420617070726f76616c6564000081525060200191505060405180910390fd5b61139760405180807f70726f706f73616c73000000000000000000000000000000000000000000000081525060090190506040518091039020610dc6565b6113d560405180807f73746174655f6f665f70726f706f73616c00000000000000000000000000000081525060110190506040518091039020610dc6565b61141360405180807f676f7665726e6d656e7400000000000000000000000000000000000000000000815250600a0190506040518091039020610dc6565b61145160405180807f73656c6563746f7200000000000000000000000000000000000000000000000081525060080190506040518091039020610dc6565b61148f60405180807f65766964656e63655f6964000000000000000000000000000000000000000000815250600b0190506040518091039020610dc6565b6114f260405180807f70726f706f73616c730000000000000000000000000000000000000000000000815250600901905060405180910390206000600e60009054906101000a900473ffffffffffffffffffffffffffffffffffffffff16612872565b61155560405180807f73746174655f6f665f70726f706f73616c000000000000000000000000000000815250601101905060405180910390206001600e60009054906101000a900473ffffffffffffffffffffffffffffffffffffffff16612872565b61155e816131c1565b50565b6000801b600f5414156115dc576040517f08c379a00000000000000000000000000000000000000000000000000000000081526004018080602001828103825260158152602001807f7a65726f20627974657320697320696e76616c6964000000000000000000000081525060200191505060405180910390fd5b60011515600b6000600f54815260200190815260200160002060020160149054906101000a900460ff16151514801561163a57506001600c6000600f54815260200190815260200160002060009054906101000a900460ff1660ff16145b6116ac576040517f08c379a000000000000000000000000000000000000000000000000000000000815260040180806020018281038252601e8152602001807f7468652070726f706f73616c206973206e6f7420617070726f76616c6564000081525060200191505060405180910390fd5b6116ea60405180807f70726f706f73616c73000000000000000000000000000000000000000000000081525060090190506040518091039020610dc6565b61172860405180807f73746174655f6f665f70726f706f73616c00000000000000000000000000000081525060110190506040518091039020610dc6565b61176660405180807f676f7665726e6d656e7400000000000000000000000000000000000000000000815250600a0190506040518091039020610dc6565b6117a460405180807f73656c6563746f7200000000000000000000000000000000000000000000000081525060080190506040518091039020610dc6565b6117e260405180807f65766964656e63655f6964000000000000000000000000000000000000000000815250600b0190506040518091039020610dc6565b61184560405180807f70726f706f73616c730000000000000000000000000000000000000000000000815250600901905060405180910390206000600e60009054906101000a900473ffffffffffffffffffffffffffffffffffffffff16612872565b6118a860405180807f73746174655f6f665f70726f706f73616c000000000000000000000000000000815250601101905060405180910390206001600e60009054906101000a900473ffffffffffffffffffffffffffffffffffffffff16612872565b6118b2828261358d565b5050565b33600073ffffffffffffffffffffffffffffffffffffffff168173ffffffffffffffffffffffffffffffffffffffff16141561195a576040517f08c379a00000000000000000000000000000000000000000000000000000000081526004018080602001828103825260178152602001807f7a65726f206164647265737320697320696e76616c696400000000000000000081525060200191505060405180910390fd5b6000600160008373ffffffffffffffffffffffffffffffffffffffff1673ffffffffffffffffffffffffffffffffffffffff168152602001908152602001600020541415611a10576040517f08c379a00000000000000000000000000000000000000000000000000000000081526004018080602001828103825260198152602001807f746865206d656d62657220646f6573206e6f742065786973740000000000000081525060200191505060405180910390fd5b60003390506000838260405160200180806020018373ffffffffffffffffffffffffffffffffffffffff1673ffffffffffffffffffffffffffffffffffffffff168152602001828103825284818151815260200191508051906020019080838360005b83811015611a8e578082015181840152602081019050611a73565b50505050905090810190601f168015611abb5780820380516001836020036101000a031916815260200191505b509350505050604051602081830303815290604052805190602001209050611ae1614133565b60405180608001604052808381526020018681526020018473ffffffffffffffffffffffffffffffffffffffff16815260200160011515815250905080600b6000848152602001908152602001600020600082015181600001556020820151816001019080519060200190611b57929190614176565b5060408201518160020160006101000a81548173ffffffffffffffffffffffffffffffffffffffff021916908373ffffffffffffffffffffffffffffffffffffffff16021790555060608201518160020160146101000a81548160ff0219169083151502179055509050506001600c600084815260200190815260200160002060006101000a81548160ff021916908360ff1602179055505050505050565b80600f8190555050565b600d60009054906101000a900473ffffffffffffffffffffffffffffffffffffffff1673ffffffffffffffffffffffffffffffffffffffff163373ffffffffffffffffffffffffffffffffffffffff1614611ca6576040517f08c379a00000000000000000000000000000000000000000000000000000000081526004018080602001828103825260318152602001806142486031913960400191505060405180910390fd5b611caf8161359c565b50565b600c6020528060005260406000206000915054906101000a900460ff1681565b60008060001b8214158015611d0e575060011515600b600084815260200190815260200160002060020160149054906101000a900460ff161515145b8015611d3d57506002600c600084815260200190815260200160002060009054906101000a900460ff1660ff16145b9050919050565b6000801b600f541415611dbf576040517f08c379a00000000000000000000000000000000000000000000000000000000081526004018080602001828103825260158152602001807f7a65726f20627974657320697320696e76616c6964000000000000000000000081525060200191505060405180910390fd5b60011515600b6000600f54815260200190815260200160002060020160149054906101000a900460ff161515148015611e1d57506001600c6000600f54815260200190815260200160002060009054906101000a900460ff1660ff16145b611e8f576040517f08c379a000000000000000000000000000000000000000000000000000000000815260040180806020018281038252601e8152602001807f7468652070726f706f73616c206973206e6f7420617070726f76616c6564000081525060200191505060405180910390fd5b611ecd60405180807f70726f706f73616c73000000000000000000000000000000000000000000000081525060090190506040518091039020610dc6565b611f0b60405180807f73746174655f6f665f70726f706f73616c00000000000000000000000000000081525060110190506040518091039020610dc6565b611f4960405180807f676f7665726e6d656e7400000000000000000000000000000000000000000000815250600a0190506040518091039020610dc6565b611f8760405180807f73656c6563746f7200000000000000000000000000000000000000000000000081525060080190506040518091039020610dc6565b611fc560405180807f65766964656e63655f6964000000000000000000000000000000000000000000815250600b0190506040518091039020610dc6565b61202860405180807f70726f706f73616c730000000000000000000000000000000000000000000000815250600901905060405180910390206000600e60009054906101000a900473ffffffffffffffffffffffffffffffffffffffff16612872565b61208b60405180807f73746174655f6f665f70726f706f73616c000000000000000000000000000000815250601101905060405180910390206001600e60009054906101000a900473ffffffffffffffffffffffffffffffffffffffff16612872565b612094816137e4565b50565b828282600073ffffffffffffffffffffffffffffffffffffffff168373ffffffffffffffffffffffffffffffffffffffff16141561213d576040517f08c379a00000000000000000000000000000000000000000000000000000000081526004018080602001828103825260178152602001807f7a65726f206164647265737320697320696e76616c696400000000000000000081525060200191505060405180910390fd5b81600860008573ffffffffffffffffffffffffffffffffffffffff1673ffffffffffffffffffffffffffffffffffffffff168152602001908152602001600020828154811061218857fe5b9060005260206000200154146121e9576040517f08c379a00000000000000000000000000000000000000000000000000000000081526004018080602001828103825260338152602001806142796033913960400191505060405180910390fd5b8273ffffffffffffffffffffffffffffffffffffffff166007600084815260200190815260200160002060009054906101000a900473ffffffffffffffffffffffffffffffffffffffff1673ffffffffffffffffffffffffffffffffffffffff16146122bd576040517f08c379a00000000000000000000000000000000000000000000000000000000081526004018080602001828103825260208152602001807f7468652061646d696e6973747261746f7220646f6573206e6f7420657869737481525060200191505060405180910390fd5b6000801b851415612336576040517f08c379a00000000000000000000000000000000000000000000000000000000081526004018080602001828103825260158152602001807f7a65726f20627974657320697320696e76616c6964000000000000000000000081525060200191505060405180910390fd5b306007600087815260200190815260200160002060006101000a81548173ffffffffffffffffffffffffffffffffffffffff021916908373ffffffffffffffffffffffffffffffffffffffff1602179055506000801b600860008873ffffffffffffffffffffffffffffffffffffffff1673ffffffffffffffffffffffffffffffffffffffff16815260200190815260200160002085815481106123d657fe5b9060005260206000200181905550505050505050565b3360405180807f70726f706f73616c73000000000000000000000000000000000000000000000081525060090190506040518091039020600073ffffffffffffffffffffffffffffffffffffffff166007600083815260200190815260200160002060009054906101000a900473ffffffffffffffffffffffffffffffffffffffff1673ffffffffffffffffffffffffffffffffffffffff1614156124f9576040517f08c379a00000000000000000000000000000000000000000000000000000000081526004018080602001828103825260178152602001807f7a65726f206164647265737320697320696e76616c696400000000000000000081525060200191505060405180910390fd5b8173ffffffffffffffffffffffffffffffffffffffff166007600083815260200190815260200160002060009054906101000a900473ffffffffffffffffffffffffffffffffffffffff1673ffffffffffffffffffffffffffffffffffffffff16146125cd576040517f08c379a00000000000000000000000000000000000000000000000000000000081526004018080602001828103825260208152602001807f7468652061646d696e6973747261746f7220646f6573206e6f7420657869737481525060200191505060405180910390fd5b6000801b831415612646576040517f08c379a00000000000000000000000000000000000000000000000000000000081526004018080602001828103825260158152602001807f7a65726f20627974657320697320696e76616c6964000000000000000000000081525060200191505060405180910390fd5b60011515600b600085815260200190815260200160002060020160149054906101000a900460ff161515146126e3576040517f08c379a000000000000000000000000000000000000000000000000000000000815260040180806020018281038252601b8152602001807f7468652070726f706f73616c20646f6573206e6f74206578697374000000000081525060200191505060405180910390fd5b6001600c600085815260200190815260200160002060009054906101000a900460ff1660ff161461275f576040517f08c379a00000000000000000000000000000000000000000000000000000000081526004018080602001828103825260358152602001806142ce6035913960400191505060405180910390fd5b6000600b600085815260200190815260200160002060020160146101000a81548160ff0219169083151502179055506003600c600085815260200190815260200160002060006101000a81548160ff021916908360ff160217905550505050565b600d60009054906101000a900473ffffffffffffffffffffffffffffffffffffffff1673ffffffffffffffffffffffffffffffffffffffff163373ffffffffffffffffffffffffffffffffffffffff1614612866576040517f08c379a00000000000000000000000000000000000000000000000000000000081526004018080602001828103825260318152602001806142486031913960400191505060405180910390fd5b61286f81613aa9565b50565b6000801b600f5414156128ed576040517f08c379a00000000000000000000000000000000000000000000000000000000081526004018080602001828103825260158152602001807f7a65726f20627974657320697320696e76616c6964000000000000000000000081525060200191505060405180910390fd5b60011515600b6000600f54815260200190815260200160002060020160149054906101000a900460ff16151514801561294b57506001600c6000600f54815260200190815260200160002060009054906101000a900460ff1660ff16145b6129bd576040517f08c379a000000000000000000000000000000000000000000000000000000000815260040180806020018281038252601e8152602001807f7468652070726f706f73616c206973206e6f7420617070726f76616c6564000081525060200191505060405180910390fd5b6129fb60405180807f70726f706f73616c73000000000000000000000000000000000000000000000081525060090190506040518091039020610dc6565b612a3960405180807f73746174655f6f665f70726f706f73616c00000000000000000000000000000081525060110190506040518091039020610dc6565b612a7760405180807f676f7665726e6d656e7400000000000000000000000000000000000000000000815250600a0190506040518091039020610dc6565b612ab560405180807f73656c6563746f7200000000000000000000000000000000000000000000000081525060080190506040518091039020610dc6565b612af360405180807f65766964656e63655f6964000000000000000000000000000000000000000000815250600b0190506040518091039020610dc6565b612b5660405180807f70726f706f73616c730000000000000000000000000000000000000000000000815250600901905060405180910390206000600e60009054906101000a900473ffffffffffffffffffffffffffffffffffffffff16612872565b612bb960405180807f73746174655f6f665f70726f706f73616c000000000000000000000000000000815250601101905060405180910390206001600e60009054906101000a900473ffffffffffffffffffffffffffffffffffffffff16612872565b612bc4838383613c06565b505050565b81600073ffffffffffffffffffffffffffffffffffffffff168173ffffffffffffffffffffffffffffffffffffffff161415612c6d576040517f08c379a00000000000000000000000000000000000000000000000000000000081526004018080602001828103825260178152602001807f7a65726f206164647265737320697320696e76616c696400000000000000000081525060200191505060405180910390fd5b6000600560008373ffffffffffffffffffffffffffffffffffffffff1673ffffffffffffffffffffffffffffffffffffffff168152602001908152602001600020541415612d23576040517f08c379a00000000000000000000000000000000000000000000000000000000081526004018080602001828103825260188152602001807f746865206368696c6420646f6573206e6f74206578697374000000000000000081525060200191505060405180910390fd5b60003073ffffffffffffffffffffffffffffffffffffffff163190506000612d4d82600a54613f68565b90506000612d5b8286613f68565b1015612db2576040517f08c379a000000000000000000000000000000000000000000000000000000000815260040180806020018281038252602c81526020018061421c602c913960400191505060405180910390fd5b612dbe600a5485613fb2565b600a81905550612e0d600960008773ffffffffffffffffffffffffffffffffffffffff1673ffffffffffffffffffffffffffffffffffffffff1681526020019081526020016000205485613fb2565b600960008773ffffffffffffffffffffffffffffffffffffffff1673ffffffffffffffffffffffffffffffffffffffff168152602001908152602001600020819055505050505050565b600073ffffffffffffffffffffffffffffffffffffffff168173ffffffffffffffffffffffffffffffffffffffff161415612efa576040517f08c379a00000000000000000000000000000000000000000000000000000000081526004018080602001828103825260178152602001807f7a65726f206164647265737320697320696e76616c696400000000000000000081525060200191505060405180910390fd5b600060048290806001815401808255809150509060018203906000526020600020016000909192909190916101000a81548173ffffffffffffffffffffffffffffffffffffffff021916908373ffffffffffffffffffffffffffffffffffffffff160217905550905080600560008473ffffffffffffffffffffffffffffffffffffffff1673ffffffffffffffffffffffffffffffffffffffff16815260200190815260200160002081905550612fb1600661403a565b5050565b6000801b81141561302e576040517f08c379a00000000000000000000000000000000000000000000000000000000081526004018080602001828103825260158152602001807f7a65726f20627974657320697320696e76616c6964000000000000000000000081525060200191505060405180910390fd5b600073ffffffffffffffffffffffffffffffffffffffff166007600083815260200190815260200160002060009054906101000a900473ffffffffffffffffffffffffffffffffffffffff1673ffffffffffffffffffffffffffffffffffffffff1614613103576040517f08c379a000000000000000000000000000000000000000000000000000000000815260040180806020018281038252601b8152602001807f746865207661726961626c6520616c726561647920657869737473000000000081525060200191505060405180910390fd5b306007600083815260200190815260200160002060006101000a81548173ffffffffffffffffffffffffffffffffffffffff021916908373ffffffffffffffffffffffffffffffffffffffff160217905550600860003073ffffffffffffffffffffffffffffffffffffffff1673ffffffffffffffffffffffffffffffffffffffff16815260200190815260200160002081908060018154018082558091505090600182039060005260206000200160009091929091909150555050565b80600073ffffffffffffffffffffffffffffffffffffffff168173ffffffffffffffffffffffffffffffffffffffff161415613265576040517f08c379a00000000000000000000000000000000000000000000000000000000081526004018080602001828103825260178152602001807f7a65726f206164647265737320697320696e76616c696400000000000000000081525060200191505060405180910390fd5b6000600560008373ffffffffffffffffffffffffffffffffffffffff1673ffffffffffffffffffffffffffffffffffffffff16815260200190815260200160002054141561331b576040517f08c379a00000000000000000000000000000000000000000000000000000000081526004018080602001828103825260188152602001807f746865206368696c6420646f6573206e6f74206578697374000000000000000081525060200191505060405180910390fd5b6000600560008473ffffffffffffffffffffffffffffffffffffffff1673ffffffffffffffffffffffffffffffffffffffff16815260200190815260200160002054905060006004828154811061336e57fe5b9060005260206000200160006101000a81548173ffffffffffffffffffffffffffffffffffffffff021916908373ffffffffffffffffffffffffffffffffffffffff1602179055506000600560008573ffffffffffffffffffffffffffffffffffffffff1673ffffffffffffffffffffffffffffffffffffffff168152602001908152602001600020819055506134056006614050565b6000600960008573ffffffffffffffffffffffffffffffffffffffff1673ffffffffffffffffffffffffffffffffffffffff1681526020019081526020016000205490506000600960008673ffffffffffffffffffffffffffffffffffffffff1673ffffffffffffffffffffffffffffffffffffffff1681526020019081526020016000208190555061349a600a5482613f68565b506060600860008673ffffffffffffffffffffffffffffffffffffffff1673ffffffffffffffffffffffffffffffffffffffff16815260200190815260200160002080548060200260200160405190810160405280929190818152602001828054801561352657602002820191906000526020600020905b815481526020019060010190808311613512575b5050505050905060008151905060008090505b8181101561358457600083828151811061354f57fe5b602002602001015190506000801b81141561356a5750613577565b613575888284612097565b505b8080600101915050613539565b50505050505050565b613598338383612097565b5050565b80600073ffffffffffffffffffffffffffffffffffffffff168173ffffffffffffffffffffffffffffffffffffffff161415613640576040517f08c379a00000000000000000000000000000000000000000000000000000000081526004018080602001828103825260178152602001807f7a65726f206164647265737320697320696e76616c696400000000000000000081525060200191505060405180910390fd5b6000600160008373ffffffffffffffffffffffffffffffffffffffff1673ffffffffffffffffffffffffffffffffffffffff1681526020019081526020016000205414156136f6576040517f08c379a00000000000000000000000000000000000000000000000000000000081526004018080602001828103825260198152602001807f746865206d656d62657220646f6573206e6f742065786973740000000000000081525060200191505060405180910390fd5b6000600160008473ffffffffffffffffffffffffffffffffffffffff1673ffffffffffffffffffffffffffffffffffffffff168152602001908152602001600020549050600080828154811061374857fe5b9060005260206000200160006101000a81548173ffffffffffffffffffffffffffffffffffffffff021916908373ffffffffffffffffffffffffffffffffffffffff1602179055506000600160008573ffffffffffffffffffffffffffffffffffffffff1673ffffffffffffffffffffffffffffffffffffffff168152602001908152602001600020819055506137df6002614050565b505050565b80600073ffffffffffffffffffffffffffffffffffffffff168173ffffffffffffffffffffffffffffffffffffffff161415613888576040517f08c379a00000000000000000000000000000000000000000000000000000000081526004018080602001828103825260178152602001807f7a65726f206164647265737320697320696e76616c696400000000000000000081525060200191505060405180910390fd5b6000600560008373ffffffffffffffffffffffffffffffffffffffff1673ffffffffffffffffffffffffffffffffffffffff16815260200190815260200160002054141561393e576040517f08c379a00000000000000000000000000000000000000000000000000000000081526004018080602001828103825260188152602001807f746865206368696c6420646f6573206e6f74206578697374000000000000000081525060200191505060405180910390fd5b8173ffffffffffffffffffffffffffffffffffffffff163373ffffffffffffffffffffffffffffffffffffffff16146139c2576040517f08c379a00000000000000000000000000000000000000000000000000000000081526004018080602001828103825260228152602001806142ac6022913960400191505060405180910390fd5b6000600960008473ffffffffffffffffffffffffffffffffffffffff1673ffffffffffffffffffffffffffffffffffffffff1681526020019081526020016000205490506000600960008573ffffffffffffffffffffffffffffffffffffffff1673ffffffffffffffffffffffffffffffffffffffff16815260200190815260200160002081905550613a57600a5482613f68565b600a819055503373ffffffffffffffffffffffffffffffffffffffff166108fc829081150290604051600060405180830381858888f19350505050158015613aa3573d6000803e3d6000fd5b50505050565b600073ffffffffffffffffffffffffffffffffffffffff168173ffffffffffffffffffffffffffffffffffffffff161415613b4c576040517f08c379a00000000000000000000000000000000000000000000000000000000081526004018080602001828103825260178152602001807f7a65726f206164647265737320697320696e76616c696400000000000000000081525060200191505060405180910390fd5b6000808290806001815401808255809150509060018203906000526020600020016000909192909190916101000a81548173ffffffffffffffffffffffffffffffffffffffff021916908373ffffffffffffffffffffffffffffffffffffffff160217905550905080600160008473ffffffffffffffffffffffffffffffffffffffff1673ffffffffffffffffffffffffffffffffffffffff16815260200190815260200160002081905550613c02600261403a565b5050565b338383600073ffffffffffffffffffffffffffffffffffffffff168373ffffffffffffffffffffffffffffffffffffffff161415613cac576040517f08c379a00000000000000000000000000000000000000000000000000000000081526004018080602001828103825260178152602001807f7a65726f206164647265737320697320696e76616c696400000000000000000081525060200191505060405180910390fd5b81600860008573ffffffffffffffffffffffffffffffffffffffff1673ffffffffffffffffffffffffffffffffffffffff1681526020019081526020016000208281548110613cf757fe5b906000526020600020015414613d58576040517f08c379a00000000000000000000000000000000000000000000000000000000081526004018080602001828103825260338152602001806142796033913960400191505060405180910390fd5b8273ffffffffffffffffffffffffffffffffffffffff166007600084815260200190815260200160002060009054906101000a900473ffffffffffffffffffffffffffffffffffffffff1673ffffffffffffffffffffffffffffffffffffffff1614613e2c576040517f08c379a00000000000000000000000000000000000000000000000000000000081526004018080602001828103825260208152602001807f7468652061646d696e6973747261746f7220646f6573206e6f7420657869737481525060200191505060405180910390fd5b6000801b861415613ea5576040517f08c379a00000000000000000000000000000000000000000000000000000000081526004018080602001828103825260158152602001807f7a65726f20627974657320697320696e76616c6964000000000000000000000081525060200191505060405180910390fd5b836007600088815260200190815260200160002060006101000a81548173ffffffffffffffffffffffffffffffffffffffff021916908373ffffffffffffffffffffffffffffffffffffffff160217905550600860008573ffffffffffffffffffffffffffffffffffffffff1673ffffffffffffffffffffffffffffffffffffffff168152602001908152602001600020869080600181540180825580915050906001820390600052602060002001600090919290919091505550505050505050565b6000613faa83836040518060400160405280601e81526020017f536166654d6174683a207375627472616374696f6e206f766572666c6f770000815250614073565b905092915050565b600080828401905083811015614030576040517f08c379a000000000000000000000000000000000000000000000000000000000815260040180806020018281038252601b8152602001807f536166654d6174683a206164646974696f6e206f766572666c6f77000000000081525060200191505060405180910390fd5b8091505092915050565b6001816000016000828254019250508190555050565b61406860018260000154613f6890919063ffffffff16565b816000018190555050565b6000838311158290614120576040517f08c379a00000000000000000000000000000000000000000000000000000000081526004018080602001828103825283818151815260200191508051906020019080838360005b838110156140e55780820151818401526020810190506140ca565b50505050905090810190601f1680156141125780820380516001836020036101000a031916815260200191505b509250505060405180910390fd5b5060008385039050809150509392505050565b60405180608001604052806000801916815260200160608152602001600073ffffffffffffffffffffffffffffffffffffffff1681526020016000151581525090565b828054600181600116156101000203166002900490600052602060002090601f016020900481019282601f106141b757805160ff19168380011785556141e5565b828001600101855582156141e5579182015b828111156141e45782518255916020019190600101906141c9565b5b5090506141f291906141f6565b5090565b61421891905b808211156142145760008160009055506001016141fc565b5090565b9056fe74686520616d6f756e74206973206c6172676572207468616e20756e61737369676e65642062616c616e6365746869732066756e6374696f6e2063616e2062652063616c6c64206f6e6c792062792074686520676f7665726e6d656e74746865207661726961626c655f696e64657820646f6573206e6f74207370656369667920746865207661726961626c655f69646f6e6c79206368696c642063616e20776974686472617720746865206275646765747468652070726f706f73616c20646f6573206e6f74206578697374206f7220697420697320616c72656164792072656a6563746564a265627a7a72305820d2003817cdaacdf7b1864cd8be73e1571cb3b10098271f921eb10ad3e210ca3864736f6c63430005090032",
  "source": "pragma solidity >=0.5.0;\n\nimport {Administration} from \"./Administration.sol\";\n\ncontract RootCommunity is Administration(address(0)) {\n    struct Proposal {\n        bytes32 id;\n        string uri;\n        address proposer;\n        bool exist;\n    }\n\n    mapping (bytes32=>Proposal) public proposals;\n\n    // state 1: the proposal is neither approvaled nor rejected.\n    // state 2: the proposal is approvaled by the council.\n    // state 3: the proposal is rejected by the government.\n    mapping (bytes32=>uint8) public state_of_proposal;\n\n    address government = address(0);\n    address selector = address(0);\n    bytes32 evidence_id = bytes32(0);\n\n    bytes32 constant proposals_id = keccak256(\"proposals\");\n    bytes32 constant state_of_proposal_id = keccak256(\"state_of_proposal\");\n    bytes32 constant government_id = keccak256(\"government\");\n    bytes32 constant selector_id = keccak256(\"selector\");\n    bytes32 constant evidence_id_id = keccak256(\"evidence_id\");\n\n    modifier onlyGovernment {\n        require(msg.sender==government,\"this function can be calld only by the government\");\n        _;\n    }\n\n    modifier onlyApprovaled() {\n        require(evidence_id!=bytes32(0),\"zero bytes is invalid\");\n        require(proposals[evidence_id].exist==true && state_of_proposal[evidence_id]==1,\"the proposal is not approvaled\");\n        add_authority(proposals_id);\n        add_authority(state_of_proposal_id);\n        add_authority(government_id);\n        add_authority(selector_id);\n        add_authority(evidence_id_id);\n        delegate_authority(proposals_id, 0, selector);\n        delegate_authority(state_of_proposal_id, 1, selector);\n        _;\n    }\n\n    constructor(address _government, address _selector) public {\n        government = _government;\n        selector = _selector;\n    }\n\n    function set_evidence(bytes32 id) public {\n        evidence_id = id;\n    }\n\n    function add_proposal(string memory uri) public onlyMember(msg.sender) {\n        address proposer = msg.sender;\n        bytes32 id = keccak256(abi.encode(uri,proposer));\n        Proposal memory new_proposal = Proposal(id,uri,proposer,true);\n        proposals[id] = new_proposal;\n        state_of_proposal[id] = 1;\n    }\n\n    function reject_proposal(bytes32 id) public onlyAdministrator(msg.sender,proposals_id) {\n        require(id!=bytes32(0),\"zero bytes is invalid\");\n        require(proposals[id].exist==true,\"the proposal does not exist\");\n        require(state_of_proposal[id]==1,\"the proposal does not exist or it is already rejected\");\n        proposals[id].exist = false;\n        state_of_proposal[id] = 3;\n    }\n\n    function register_member(address new_member) public onlyGovernment {\n        super.register_member(new_member);\n    }\n\n    function dismiss_member(address member) public onlyGovernment {\n        super.dismiss_member(member);\n    }\n\n    function add_child(address child) public onlyApprovaled {\n        super.add_child(child);\n    }\n\n    function abolish_child(address child) public onlyApprovaled{\n        super.abolish_child(child);\n    }\n\n    function add_authority(bytes32 variable_id) public onlyApprovaled {\n        super.add_authority(variable_id);\n    }\n\n    function delegate_authority(bytes32 variable_id, uint256 variable_index, address new_administrator) public onlyApprovaled {\n        super.delegate_authority(variable_id,variable_index,new_administrator);\n    }\n\n    function deprive_authority(bytes32 variable_id, uint256 variable_index) public onlyApprovaled {\n        super.deprive_authority(variable_id,variable_index);\n    }\n\n    function assign_budget(address child, uint256 amount) public onlyApprovaled {\n        super.assign_budget(child,amount);\n    }\n\n    function release_child_budget(address payable child) public onlyApprovaled {\n        super.release_child_budget(child);\n    }\n\n    function isApprovaled(bytes32 id) public view returns(bool) {\n        return id!=bytes32(0) && proposals[id].exist==true && state_of_proposal[id]==2;\n    }\n}",
  "sourcePath": "/Users/suegamisora/GoogleDrive/projects/degov_contract/contracts/RootCommunity.sol",
  "compiler": {
    "name": "solc",
    "version": "0.5.9+commit.e560f70d.Emscripten.clang"
  },
  "schemaVersion": "3.0.23",
  "updatedAt": "2020-02-10T05:31:48.359Z",
  "devdoc": {
    "methods": {}
  },
  "userdoc": {
    "methods": {}
  }
}